{
    "contractName": "Add",
    "abi": [
        {
            "inputs": [],
            "stateMutability": "payable",
            "type": "constructor"
        },
        {
            "inputs": [
                {
                    "internalType": "uint256",
                    "name": "n",
                    "type": "uint256"
                }
            ],
            "name": "add",
            "outputs": [],
            "stateMutability": "payable",
            "type": "function"
        },
        {
            "inputs": [],
            "name": "getCurrentNumber",
            "outputs": [
                {
                    "internalType": "uint256",
                    "name": "",
                    "type": "uint256"
                }
            ],
            "stateMutability": "view",
            "type": "function"
        }
    ],
    "bytecode": "0x60806040526000808190555061029d8061001a6000396000f3fe6080604052600436106100295760003560e01c80631003e2d21461002e5780635c2fbc3e1461004a575b600080fd5b610048600480360381019061004391906100f1565b610075565b005b34801561005657600080fd5b5061005f6100d3565b60405161006c919061016c565b60405180910390f35b600081116100b8576040517f08c379a00000000000000000000000000000000000000000000000000000000081526004016100af9061014c565b60405180910390fd5b806000808282546100c99190610198565b9250508190555050565b60008054905090565b6000813590506100eb81610250565b92915050565b60006020828403121561010357600080fd5b6000610111848285016100dc565b91505092915050565b6000610127601883610187565b915061013282610227565b602082019050919050565b610146816101ee565b82525050565b600060208201905081810360008301526101658161011a565b9050919050565b6000602082019050610181600083018461013d565b92915050565b600082825260208201905092915050565b60006101a3826101ee565b91506101ae836101ee565b9250827fffffffffffffffffffffffffffffffffffffffffffffffffffffffffffffffff038211156101e3576101e26101f8565b5b828201905092915050565b6000819050919050565b7f4e487b7100000000000000000000000000000000000000000000000000000000600052601160045260246000fd5b7f506f736974697665206e756d6265722072657175697265640000000000000000600082015250565b610259816101ee565b811461026457600080fd5b5056fea2646970667358221220c8a377283c164a6f757aa8cff6fa5e2379d1b831c36f04f3eaa72ddbf966783f64736f6c63430008030033",
    "immutableReferences": {},
    "source": "pragma solidity >=0.8.0;\n\ncontract Add {\n  uint currentNumber;\n\n  constructor() payable {\n    currentNumber = 0;\n  }\n\n  function add(uint n) public payable {\n    require(n > 0, \"Positive number required\");\n    currentNumber += n;\n  }\n\n  function getCurrentNumber() public view returns (uint) {\n    return currentNumber;\n  }\n}\n",
    "sourcePath": "/home/jenkins/projects/gitcoin-nervos/task8/app/contracts/Add.sol",
    "compiler": {
        "name": "solc",
        "version": "0.8.3+commit.8d00100c.Linux.g++"
    },
    "schemaVersion": "3.3.4",
    "updatedAt": "2021-08-10T12:50:23.087Z",
    "devdoc": {
        "kind": "dev",
        "methods": {},
        "version": 1
    },
    "userdoc": {
        "kind": "user",
        "methods": {},
        "version": 1
    }
}